{
  "_format": "hh-sol-artifact-1",
  "contractName": "SimpleCCIPReceiver",
  "sourceName": "src/contracts/SimpleCCIPReceiver.sol",
  "abi": [
    {
      "inputs": [
        {
          "internalType": "address",
          "name": "router",
          "type": "address"
        }
      ],
      "stateMutability": "nonpayable",
      "type": "constructor"
    },
    {
      "inputs": [
        {
          "internalType": "address",
          "name": "router",
          "type": "address"
        }
      ],
      "name": "InvalidRouter",
      "type": "error"
    },
    {
      "anonymous": false,
      "inputs": [
        {
          "indexed": true,
          "internalType": "bytes32",
          "name": "messageId",
          "type": "bytes32"
        },
        {
          "indexed": true,
          "internalType": "uint64",
          "name": "sourceChainSelector",
          "type": "uint64"
        },
        {
          "indexed": false,
          "internalType": "address",
          "name": "sender",
          "type": "address"
        },
        {
          "indexed": false,
          "internalType": "string",
          "name": "text",
          "type": "string"
        }
      ],
      "name": "MessageReceived",
      "type": "event"
    },
    {
      "inputs": [
        {
          "components": [
            {
              "internalType": "bytes32",
              "name": "messageId",
              "type": "bytes32"
            },
            {
              "internalType": "uint64",
              "name": "sourceChainSelector",
              "type": "uint64"
            },
            {
              "internalType": "bytes",
              "name": "sender",
              "type": "bytes"
            },
            {
              "internalType": "bytes",
              "name": "data",
              "type": "bytes"
            },
            {
              "components": [
                {
                  "internalType": "address",
                  "name": "token",
                  "type": "address"
                },
                {
                  "internalType": "uint256",
                  "name": "amount",
                  "type": "uint256"
                }
              ],
              "internalType": "struct Client.EVMTokenAmount[]",
              "name": "destTokenAmounts",
              "type": "tuple[]"
            }
          ],
          "internalType": "struct Client.Any2EVMMessage",
          "name": "message",
          "type": "tuple"
        }
      ],
      "name": "ccipReceive",
      "outputs": [],
      "stateMutability": "nonpayable",
      "type": "function"
    },
    {
      "inputs": [],
      "name": "getLastReceivedMessageDetails",
      "outputs": [
        {
          "internalType": "bytes32",
          "name": "messageId",
          "type": "bytes32"
        },
        {
          "internalType": "string",
          "name": "text",
          "type": "string"
        }
      ],
      "stateMutability": "view",
      "type": "function"
    },
    {
      "inputs": [],
      "name": "getRouter",
      "outputs": [
        {
          "internalType": "address",
          "name": "",
          "type": "address"
        }
      ],
      "stateMutability": "view",
      "type": "function"
    },
    {
      "inputs": [
        {
          "internalType": "bytes4",
          "name": "interfaceId",
          "type": "bytes4"
        }
      ],
      "name": "supportsInterface",
      "outputs": [
        {
          "internalType": "bool",
          "name": "",
          "type": "bool"
        }
      ],
      "stateMutability": "view",
      "type": "function"
    }
  ],
  "bytecode": "0x60a06040523480156200001157600080fd5b50604051620010f3380380620010f3833981810160405281019062000037919062000153565b80600073ffffffffffffffffffffffffffffffffffffffff168173ffffffffffffffffffffffffffffffffffffffff1603620000ad5760006040517fd7f73334000000000000000000000000000000000000000000000000000000008152600401620000a4919062000196565b60405180910390fd5b8073ffffffffffffffffffffffffffffffffffffffff1660808173ffffffffffffffffffffffffffffffffffffffff16815250505050620001b3565b600080fd5b600073ffffffffffffffffffffffffffffffffffffffff82169050919050565b60006200011b82620000ee565b9050919050565b6200012d816200010e565b81146200013957600080fd5b50565b6000815190506200014d8162000122565b92915050565b6000602082840312156200016c576200016b620000e9565b5b60006200017c848285016200013c565b91505092915050565b62000190816200010e565b82525050565b6000602082019050620001ad600083018462000185565b92915050565b608051610f24620001cf60003960006102d90152610f246000f3fe608060405234801561001057600080fd5b506004361061004c5760003560e01c806301ffc9a714610051578063263596a51461008157806385572ffb146100a0578063b0f479a1146100bc575b600080fd5b61006b60048036038101906100669190610419565b6100da565b6040516100789190610461565b60405180910390f35b6100896101ac565b604051610097929190610525565b60405180910390f35b6100ba60048036038101906100b59190610579565b610249565b005b6100c46102d5565b6040516100d19190610603565b60405180910390f35b60007f85572ffb000000000000000000000000000000000000000000000000000000007bffffffffffffffffffffffffffffffffffffffffffffffffffffffff1916827bffffffffffffffffffffffffffffffffffffffffffffffffffffffff191614806101a557507f01ffc9a7000000000000000000000000000000000000000000000000000000007bffffffffffffffffffffffffffffffffffffffffffffffffffffffff1916827bffffffffffffffffffffffffffffffffffffffffffffffffffffffff1916145b9050919050565b6000606060005460018080546101c19061064d565b80601f01602080910402602001604051908101604052809291908181526020018280546101ed9061064d565b801561023a5780601f1061020f5761010080835404028352916020019161023a565b820191906000526020600020905b81548152906001019060200180831161021d57829003601f168201915b50505050509050915091509091565b6102516102d5565b73ffffffffffffffffffffffffffffffffffffffff163373ffffffffffffffffffffffffffffffffffffffff16146102c057336040517fd7f733340000000000000000000000000000000000000000000000000000000081526004016102b79190610603565b60405180910390fd5b6102d2816102cd90610a83565b6102fd565b50565b60007f0000000000000000000000000000000000000000000000000000000000000000905090565b806000015160008190555080606001518060200190518101906103209190610b37565b6001908161032e9190610d2c565b50806020015167ffffffffffffffff1681600001517fb1e312a29937cc11967b0e4a346fef1ae132424ebaba9dc6d90249dba053e87c836040015180602001905181019061037c9190610e3c565b84606001518060200190518101906103949190610b37565b6040516103a2929190610ebe565b60405180910390a350565b6000604051905090565b600080fd5b600080fd5b60007fffffffff0000000000000000000000000000000000000000000000000000000082169050919050565b6103f6816103c1565b811461040157600080fd5b50565b600081359050610413816103ed565b92915050565b60006020828403121561042f5761042e6103b7565b5b600061043d84828501610404565b91505092915050565b60008115159050919050565b61045b81610446565b82525050565b60006020820190506104766000830184610452565b92915050565b6000819050919050565b61048f8161047c565b82525050565b600081519050919050565b600082825260208201905092915050565b60005b838110156104cf5780820151818401526020810190506104b4565b60008484015250505050565b6000601f19601f8301169050919050565b60006104f782610495565b61050181856104a0565b93506105118185602086016104b1565b61051a816104db565b840191505092915050565b600060408201905061053a6000830185610486565b818103602083015261054c81846104ec565b90509392505050565b600080fd5b600060a082840312156105705761056f610555565b5b81905092915050565b60006020828403121561058f5761058e6103b7565b5b600082013567ffffffffffffffff8111156105ad576105ac6103bc565b5b6105b98482850161055a565b91505092915050565b600073ffffffffffffffffffffffffffffffffffffffff82169050919050565b60006105ed826105c2565b9050919050565b6105fd816105e2565b82525050565b600060208201905061061860008301846105f4565b92915050565b7f4e487b7100000000000000000000000000000000000000000000000000000000600052602260045260246000fd5b6000600282049050600182168061066557607f821691505b6020821081036106785761067761061e565b5b50919050565b600080fd5b7f4e487b7100000000000000000000000000000000000000000000000000000000600052604160045260246000fd5b6106bb826104db565b810181811067ffffffffffffffff821117156106da576106d9610683565b5b80604052505050565b60006106ed6103ad565b90506106f982826106b2565b919050565b600080fd5b61070c8161047c565b811461071757600080fd5b50565b60008135905061072981610703565b92915050565b600067ffffffffffffffff82169050919050565b61074c8161072f565b811461075757600080fd5b50565b60008135905061076981610743565b92915050565b600080fd5b600080fd5b600067ffffffffffffffff82111561079457610793610683565b5b61079d826104db565b9050602081019050919050565b82818337600083830152505050565b60006107cc6107c784610779565b6106e3565b9050828152602081018484840111156107e8576107e7610774565b5b6107f38482856107aa565b509392505050565b600082601f8301126108105761080f61076f565b5b81356108208482602086016107b9565b91505092915050565b600067ffffffffffffffff82111561084457610843610683565b5b602082029050602081019050919050565b600080fd5b610863816105e2565b811461086e57600080fd5b50565b6000813590506108808161085a565b92915050565b6000819050919050565b61089981610886565b81146108a457600080fd5b50565b6000813590506108b681610890565b92915050565b6000604082840312156108d2576108d161067e565b5b6108dc60406106e3565b905060006108ec84828501610871565b6000830152506020610900848285016108a7565b60208301525092915050565b600061091f61091a84610829565b6106e3565b9050808382526020820190506040840283018581111561094257610941610855565b5b835b8181101561096b578061095788826108bc565b845260208401935050604081019050610944565b5050509392505050565b600082601f83011261098a5761098961076f565b5b813561099a84826020860161090c565b91505092915050565b600060a082840312156109b9576109b861067e565b5b6109c360a06106e3565b905060006109d38482850161071a565b60008301525060206109e78482850161075a565b602083015250604082013567ffffffffffffffff811115610a0b57610a0a6106fe565b5b610a17848285016107fb565b604083015250606082013567ffffffffffffffff811115610a3b57610a3a6106fe565b5b610a47848285016107fb565b606083015250608082013567ffffffffffffffff811115610a6b57610a6a6106fe565b5b610a7784828501610975565b60808301525092915050565b6000610a8f36836109a3565b9050919050565b600067ffffffffffffffff821115610ab157610ab0610683565b5b610aba826104db565b9050602081019050919050565b6000610ada610ad584610a96565b6106e3565b905082815260208101848484011115610af657610af5610774565b5b610b018482856104b1565b509392505050565b600082601f830112610b1e57610b1d61076f565b5b8151610b2e848260208601610ac7565b91505092915050565b600060208284031215610b4d57610b4c6103b7565b5b600082015167ffffffffffffffff811115610b6b57610b6a6103bc565b5b610b7784828501610b09565b91505092915050565b60008190508160005260206000209050919050565b60006020601f8301049050919050565b600082821b905092915050565b600060088302610be27fffffffffffffffffffffffffffffffffffffffffffffffffffffffffffffffff82610ba5565b610bec8683610ba5565b95508019841693508086168417925050509392505050565b6000819050919050565b6000610c29610c24610c1f84610886565b610c04565b610886565b9050919050565b6000819050919050565b610c4383610c0e565b610c57610c4f82610c30565b848454610bb2565b825550505050565b600090565b610c6c610c5f565b610c77818484610c3a565b505050565b5b81811015610c9b57610c90600082610c64565b600181019050610c7d565b5050565b601f821115610ce057610cb181610b80565b610cba84610b95565b81016020851015610cc9578190505b610cdd610cd585610b95565b830182610c7c565b50505b505050565b600082821c905092915050565b6000610d0360001984600802610ce5565b1980831691505092915050565b6000610d1c8383610cf2565b9150826002028217905092915050565b610d3582610495565b67ffffffffffffffff811115610d4e57610d4d610683565b5b610d58825461064d565b610d63828285610c9f565b600060209050601f831160018114610d965760008415610d84578287015190505b610d8e8582610d10565b865550610df6565b601f198416610da486610b80565b60005b82811015610dcc57848901518255600182019150602085019450602081019050610da7565b86831015610de95784890151610de5601f891682610cf2565b8355505b6001600288020188555050505b505050505050565b6000610e09826105c2565b9050919050565b610e1981610dfe565b8114610e2457600080fd5b50565b600081519050610e3681610e10565b92915050565b600060208284031215610e5257610e516103b7565b5b6000610e6084828501610e27565b91505092915050565b6000610e84610e7f610e7a846105c2565b610c04565b6105c2565b9050919050565b6000610e9682610e69565b9050919050565b6000610ea882610e8b565b9050919050565b610eb881610e9d565b82525050565b6000604082019050610ed36000830185610eaf565b8181036020830152610ee581846104ec565b9050939250505056fea26469706673582212205ea80dbc1cc6bae1996f36699a7f2da8db84cb48d5fee67fda743810251c935964736f6c63430008180033",
  "linkReferences": {},
  "deployedLinkReferences": {}
}